:020000040800F2
:1000000000100020730100086D0100086D01000858
:100010006D0100086D0100086D0100086D01000808
:10002000000000006D0100086D0100086D0100086E
:100030006D0100086D0100086D0100086D010008E8
:10004000000000006D0100086D0100086D0100084E
:100050006D0100086D0100086D010008000000003E
:100060006D0100086D0100080000000000000000A4
:100070006D0100086D0100086D0100086D010008A8
:100080006D0100086D0100086D0100086D01000898
:100090006D0100086D0100086D01000800000000FE
:1000A0006D01000880B582B000AF2B4B1B685A6908
:1000B000294B1B68802189020A435A61274B1B6820
:1000C0001A68264B1B68802149020A431A60234B99
:1000D0001B685A68214B1B6821490A405A601F4B14
:1000E0001B689A681D4B1B68802149020A439A606D
:1000F0001A4B1B68DA68194B1B681A490A40DA6008
:10010000164B1B689A69154B1B68802149000A43EE
:100110009A61FB1D00221A70FB1D1B785A1E934129
:10012000DBB201225340DBB21A00FB1D1A701A78B1
:1001300001210A401A70FB1D1A78084B1B68120235
:100140005A6100233B6002E03B6801333B603B683F
:10015000054A9342F8D9DFE70000002004000020A0
:10016000FFFEFFFFFFFFFCFFFEFF030080B500AFB7
:10017000FEE780B586B000AF1A4A1B4BD31A7B60EE
:10018000194B7B61194B3B610023FB600AE03A6924
:10019000531C3B617B69591C796112781A70FB68AA
:1001A0000133FB60FA687B689A42F0D3104A114B26
:1001B000D31A7B600F4B7B610023BB6007E07B6938
:1001C0005A1C7A6100221A70BB680133BB60BA689E
:1001D0007B689A42F3D3FFF765FFC046BD4606B081
:1001E00080BDC0460800002000000020F801000883
:0801F0000800002008000020B7
:0801F800001002400000004865
:04000005080001737B
:00000001FF
